:100000000C943A000C9457000C9457000C94570031
:100010000C9457000C9457000C9457000C94570004
:100020000C9457000C9457000C9457000C945700F4
:100030000C9457000C9457000C9457000C945700E4
:100040000C9457000C9457000C9457000C945700D4
:100050000C9457000C9457000C9457000C945700C4
:100060000C9457000C9457000C9457000C945700B4
:100070000C94570011241FBECFEFD4E0DEBFCDBFDC
:1000800011E0A0E0B1E0E2ECFAE002C005900D92D0
:10009000A83CB107D9F721E0A8ECB1E001C01D925E
:1000A000AA3DB207E1F70E945B040C945F050C9433
:1000B0000000E1E6F0E080E880831082A89584B734
:1000C000877F84BFE0E6F0E08081886180831082D2
:1000D00008951092800084E0809381001092850042
:1000E0001092840008958091840090918500089575
:1000F000AC0180918400909185009C01241B350BFC
:10010000283E3340B0F70895209184003091850057
:10011000820F931F0C94780081110DC08091CB0148
:10012000882329F09091CC0181E0892702C080E0EA
:1001300090E08170089580E0089581110BC0809156
:10014000CB01811103C08091CC0102C080E090E01E
:100150008170089580E00895811103C08091CB01E2
:10016000089580E00895811105C09091CB0181E050
:100170008927089580E00895EBECF1E08081818388
:1001800089B1881F8827881F8083089557985F98B2
:100190000895853098F4673088F421E030E001C09C
:1001A000220F6A95EAF7E82FF0E0E253FE4F922F14
:1001B0009095808189234111822B80830895853019
:1001C00080F4673070F4E82FF0E0E253FE4F81E0F6
:1001D00090E001C0880F6A95EAF79081982381E04A
:1001E00009F480E008956091CD01E62FF0E0E2533C
:1001F000FE4F80810E9441018091CD018F5F85304B
:1002000018F48093CD0108951092CD010895EEEC7D
:10021000F1E01082118212821382148208950E94EA
:100220001F010C9407019C01FC01FF2784A1832B73
:1002300084A395A1892F832B85A381E00895CF9373
:10024000DF93C7EBD1E0899199910E94130181E07E
:10025000C53CD807C1F783E090E40E94130180E019
:1002600090E80E94130183E090E10E94130183E073
:1002700090E80E94130183E090E2DF91CF910C940B
:100280001301E091D301F0E0EE0FFF1FE355FE4FA5
:1002900020813181F901FF2795A1932B95A3E7EBED
:1002A000F1E097E020813181D901BB2795962C910F
:1002B000959780FF03C03095232301C0232B95968B
:1002C0002C938695915032969111ECCFE62FF0E069
:1002D000EE0FFF1FE355FE4F80819181FC01FF2748
:1002E00085A19095892385A36093D30108950097F4
:1002F00089F0FC012381621B67FD09C0062E000CFA
:10030000770B248130E081E0621773070CF080E006
:100310008170089580E00895CF93DF93FC01A62FAC
:10032000822F309771F16181461758F59281291714
:1003300040F59381A91BA7FD24C00A2E000CBB0B1E
:10034000C481D0E0AC17BD07E4F40E94CD04480F8F
:10035000658170E0CD010E94D6040696242F269573
:1003600026952695E80FF91FE20FF11D9081892F40
:1003700090E0477002C0959587954A95E2F78170A5
:1003800001C080E0DF91CF910895CF93DF93EC011E
:100390000E9469009E0140E050E062E17AE780E05F
:1003A00090E00E940F053093D7012093D601DF9192
:1003B000CF9108958091D4019091D5010E94780049
:1003C0002091D4013091D5018091D6019091D7012F
:1003D000820F931F9093D5018093D401089541E03B
:1003E000611101C040E0692F0C94C900692F0C9481
:1003F000DF0041E0611101C040E0692F0C94C900A9
:100400004F925F926F927F928F929F92AF92BF9224
:10041000CF92DF92EF92FF920F931F93CF93DF93D0
:100420001F92CDB7DEB7862E942E5C01E62EF72EF6
:10043000262F660F330B281B310987FD3395072FB5
:10044000072E000C110B091B110997FD139537FF9F
:1004500003C077247A9402C07724739417FF03C0F3
:1004600066246A9402C066246394290137FF03C09E
:1004700051944194510817FF03C01195019511093A
:1004800040165106A4F06201D594C794F92EA81421
:1004900021F1692D8A2D9F2D0E94F901C01AD10AE0
:1004A000D7FE03C0C40CD51CF60CA70CF0CF680116
:1004B000D594C794E82EB71681F0692D8E2D9B2D0B
:1004C00079830E94F901C418D5087981D7FE03C049
:1004D000C00ED11EE70CB60CEECF692DC7010F90F0
:1004E000DF91CF911F910F91FF90EF90DF90CF9010
:1004F000BF90AF909F908F907F906F905F904F9044
:100500000C94F901FF920F931F93CF93DF93D82F91
:10051000F92E162FC72F042F792F0E940002402F8B
:100520006D2F7C2F8D2F9F2D0E940002402F612F59
:100530007C2F812F9F2D0E940002402F612F7C2F46
:100540008D2F9C2F0E940002DF91CF911F910F9160
:10055000FF9008950E940701E0E0F1E0118A1486FF
:100560000895DF92EF92FF920F931F93CF93DF9343
:10057000D82E7B01162F0F2D80910201909103013F
:10058000C0E00197A1F50F2D0C1BE0910801F0913F
:1005900009018181C817C0F4D0E0809108019091D1
:1005A0000901FC012281D21768F42D2F4C2F6D2DEB
:1005B0000E948C01682F8D2F8E0D902F0E94F901C3
:1005C000DF5FEBCFCF5FDFCFC0E0E0910801F091BC
:1005D00009018281C81740F460E08C2F8E0D902FA6
:1005E0000E94F901CF5FF1CF015031C0CF5F1C2FC6
:1005F0001E0DE0910801F09109018181C817B0F446
:10060000D0E08091080190910901FC012281D2176C
:1006100068F72D2F4C2F6D2D0E948C01682F812F94
:100620009D2F9F0D0E94F901DF5FEBCFC0E0E091AD
:100630000801F09109018281C81740F460E0812F20
:100640009C2F9F0D0E94F901CF5FF1CF1F5F812F7B
:10065000902FDF91CF911F910F91FF90EF90DF903E
:1006600008951F93CF93DF93182FEC018C2F811BDC
:100670009991992351F0892F0E94B102BC018C2FCE
:10068000811B653014F477FFF1CFDF91CF911F917B
:1006900008950F931F93CF93DF93EC019B0110926A
:1006A0000C0140930D01109210010091080110916E
:1006B00009010115110509F449C0F8018181609112
:1006C00006017091070190E00E94D604BC01809160
:1006D0000A0190910B010E94E704CB016AE070E0EF
:1006E0000E94D60490930F0180930E013093050170
:1006F0002093040140E250E0BE0181E191E00E94BC
:10070000500580910001909101010197F9F4FE01DB
:1007100001900020E9F7CF010197F8019181692F3D
:1007200070E06F5F7F4F8C1B0E94CD048150209141
:100730000201309103012130310511F095E001C033
:1007400097E0981718F48EEF80931001DF91CF9106
:100750001F910F91089520910201309103012130E2
:10076000310511F070E001C076E04FEF60E00E94CB
:100770004903089590E0909307018093060108953E
:100780009093010180930001089590930301809359
:1007900002010895909309018093080108958091C2
:1007A000D8019091D90101969093D9018093D801F5
:1007B00020910E0130910F018217930708F469C050
:1007C0001092D9011092D801E0910C01F0E0E050B4
:1007D000FF4F818981110AC080910D01823008F498
:1007E00058C0815080930D0110920C0180910C0132
:1007F00090E0FC01E050FF4F2189222309F449C019
:1008000040910001509101012091100141155105C5
:1008100021F04130510599F024C0211122C060918E
:100820000401709105018F5E9E4F0E94310390E09C
:10083000019790910C01890F80930C0112C0609177
:100840000401709105014091020150910301413072
:10085000510511F4720F01C0621B8F5E9E4F0E9402
:100860003103809110018F5F80931001082E000CDE
:10087000990BE0910801F0910901218130E02817DE
:1008800039073CF41092100180910C018F5F809326
:100890000C010C94F300CF93DF93C0E0D1E09B8771
:1008A0008A870E940F0184E190E09F838E83DF910D
:1008B000CF910C94AA02CF93DF9300D01F92CDB7B3
:1008C000DEB70E9459000E94590084EF91E00E9417
:1008D000C5010E94C6008AEF90E00E944B0481E3AC
:1008E00091E00E94CA0380E090E00E94C00381E092
:1008F00090E00E94C50385EC91E00E94AB0300E00C
:1009000010E085E0C82ED12CBB24B3949AE0E92EE8
:10091000F12C0E94DA010F5F1F4FC801B6010E943F
:10092000FB044C01892B61F40E94BC0080E00E9412
:100930008C00882329F09091CA019B259093CA01CD
:1009400000FF0E94CF03892821F78091CA018111FD
:1009500005C01092C9011092C801DBCF8091C80177
:100960009091C901B7010E94E704282FCB01B7017C
:100970000E94E704805D8983205D2A831B82CE016B
:1009800001960E94AB038091C8019091C901019624
:100990009093C9018093C801BCCF002480FD060E4E
:1009A000660F11F08695D1F7802D08950024552704
:1009B00004C0080E591F880F991F009729F07695DB
:1009C0006795B8F37105B9F7802D952F0895AA1B87
:1009D000BB1B51E107C0AA1FBB1FA617B70710F02A
:1009E000A61BB70B881F991F5A95A9F7809590955C
:1009F000BC01CD01089597FB072E16F4009407D093
:100A000077FD09D00E94E70407FC05D03EF49095DD
:100A100081959F4F0895709561957F4F0895052E9C
:100A200097FB1EF400940E94260557FD07D00E94F4
:100A30002E0507FC03D04EF40C94260550954095E6
:100A4000309521953F4F4F4F5F4F0895909580957A
:100A5000709561957F4F8F4F9F4F0895A1E21A2E99
:100A6000AA1BBB1BFD010DC0AA1FBB1FEE1FFF1F52
:100A7000A217B307E407F50720F0A21BB30BE40BA2
:100A8000F50B661F771F881F991F1A9469F76095E9
:100A90007095809590959B01AC01BD01CF010895A3
:100AA000FB01DC014150504048F001900D920020C4
:100AB000C9F701C01D9241505040E0F70895F894E5
:020AC000FFCF66
:100AC2000000000000001400000000000000000010
:100AD2000000000000000000000000000000000014
:100AE2000000000000000000000000000000000004
:100AF20000010305203B0200009220EB737D5FDEC4
:100B02003DA552EA7A14004A222229BA2ED00500C3
:100B120014C0010020A4126A2B9A74A372A338EDA8
:100B2200498F38CE2AA712AA2AAE491004101454AB
:100B320044380E11152A250000EA5BEB3A4F726B1E
:100B42003BCF73CF134F7AED5B9774247B5D56498D
:100B520072FD5B6F5B6F7BEF136F7FEF57CE389742
:100B6200246D7B6D2BED5FAD5AAD24A7720340005F
:100B720080031003800320004000200010000800C2
:080B8200040002000130300004
:00000001FF
