:100000000C943A000C9457000C9457000C94570031
:100010000C9457000C9457000C9457000C94570004
:100020000C9457000C9457000C9457000C945700F4
:100030000C9457000C9457000C9457000C945700E4
:100040000C9457000C9457000C9457000C945700D4
:100050000C9457000C9457000C9457000C945700C4
:100060000C9457000C9457000C9457000C945700B4
:100070000C94570011241FBECFEFD4E0DEBFCDBFDC
:1000800011E0A0E0B1E0E0E2F3E002C005900D92E3
:10009000AE31B107D9F721E0AEE1B1E001C01D9268
:1000A000A432B207E1F70E94C2000C948E010C94B6
:1000B00000009C01FC01FF2784A1832B84A395A150
:1000C000892F832B85A381E00895E1E6F0E080E8A5
:1000D00080831082A89584B7877F84BFE0E6F0E034
:1000E000808188618083108208951092800084E06E
:1000F0008093810010928500109284000895809171
:100100008400909185000895AC01809184009091C5
:1001100085009C01241B350B283E3340B0F7089521
:100120002091840030918500820F931F0C948400ED
:10013000CF93DF93EC010E9475009E0140E050E0F8
:1001400062E17AE780E090E00E944D013093230164
:1001500020932201DF91CF91089580912001909109
:1001600021010E9484002091200130912101809181
:10017000220190912301820F931F9093210180937C
:10018000200108950E94650084EF91E00E9498008C
:1001900083E090E40E94590080E090E80E945900BA
:1001A00083E090E10E94590083E090E80E945900AA
:1001B00083E090E20E94590080E090E40E945900A0
:1001C00080E090E20E94590080E090E10E94590096
:1001D00080E098E00E94590080E094E00E9459007D
:1001E00080E092E00E94590080E091E00E94590076
:1001F000C0E00E94AD002C2F30E0F901E050FF4F2D
:100200004081E0911E01F0911F01EE0FFF1FEB5F97
:10021000FE4F80819181FC01FF2785A1892B85A359
:10022000EFE0F1E080E090E050E0BA01082E02C07B
:10023000759567950A94E2F760FF0AC06081718145
:10024000DB01BB2795966C9195977095672308C045
:1002500060817181DB01BB2795966C919597672B27
:1002600095966C930196329687309105F1F6F901D7
:10027000EE0FFF1FEB5FFE4F80819181FC01FF2796
:1002800085A19095892385A330931F0120931E019A
:10029000CF5FC53008F4ADCFABCF052E97FB1EF472
:1002A00000940E94640157FD07D00E946C0107FC76
:1002B00003D04EF40C9464015095409530952195EF
:1002C0003F4F4F4F5F4F0895909580957095619582
:1002D0007F4F8F4F9F4F0895A1E21A2EAA1BBB1B81
:1002E000FD010DC0AA1FBB1FEE1FFF1FA217B30702
:1002F000E407F50720F0A21BB30BE40BF50B661F18
:10030000771F881F991F1A9469F7609570958095DB
:1003100090959B01AC01BD01CF010895F894FFCFEA
:100320004F487F09790340008003100380032000B9
:0E033000400020001000080004000200010040
:00000001FF
