:100000000C943A000C9444000C9444000C9444006A
:100010000C9444000C9444000C9444000C94440050
:100020000C9444000C9444000C9444000C94440040
:100030000C9444000C9444000C9444000C94440030
:100040000C9444000C9444000C9444000C94440020
:100050000C9444000C9444000C9444000C94440010
:100060000C9444000C9444000C9444000C94440000
:100070000C94440011241FBECFEFD4E0DEBFCDBFEF
:100080000E9462000C949D000C9400009C01FC01F5
:10009000FF2784A1832B84A395A1892F832B85A37C
:1000A00081E00895E1E6F0E080E880831082A89581
:1000B00084B7877F84BFE0E6F0E080818861808339
:1000C000108208950E94520083E090E40E9446004E
:1000D00080E090E80E94460083E090E10E944600A4
:1000E00083E090E80E94460083E090E20E94460090
:1000F00080E090E40E94460080E090E20E9446008A
:1001000080E090E10E94460080E098E00E94460076
:1001100080E094E00E94460080E092E00E94460069
:1001200080E091E00E94460046982E982D982C98E9
:0E0130002B982A9829982898F7CFF894FFCF9B
:00000001FF
