:100000000C943A000C944C000C944C000C944C0052
:100010000C944C000C944C000C944C000C944C0030
:100020000C944C000C944C000C944C000C944C0020
:100030000C944C000C944C000C944C000C944C0010
:100040000C944C000C944C000C944C000C944C0000
:100050000C944C000C944C000C944C000C944C00F0
:100060000C944C000C944C000C944C000C944C00E0
:100070000C944C0011241FBECFEFD4E0DEBFCDBFE7
:1000800021E0A0E0B1E001C01D92A230B207E1F78B
:100090000E948B000C94E7000C9400009C01FC0172
:1000A000FF2784A1832B84A395A1892F832B85A36C
:1000B00081E00895E1E6F0E080E880831082A89571
:1000C00084B7877F84BFE0E6F0E080818861808329
:1000D00010820895BC011092800085E08093810019
:1000E0001092820084E89EE10E94D3007093010187
:1000F0006093000108958091000190910101209189
:1001000084003091850082179307C8F7109285000C
:100110001092840008950E945A0083E090E40E94A7
:100120004E0080E090E80E944E0083E090E10E9443
:100130004E0083E090E80E944E0083E090E20E942F
:100140004E0080E090E40E944E0080E090E20E9429
:100150004E0080E090E10E944E0080E098E00E9416
:100160004E0080E094E00E944E0080E092E00E9409
:100170004E0080E091E00E944E0084E690E00E94F4
:100180006A00C0E0D0E00E947B00CD2B39F4469895
:100190002E982898459AC1E0D0E0F5CF469A289A43
:1001A00045982E98EECFAA1BBB1B51E107C0AA1F92
:1001B000BB1FA617B70710F0A61BB70B881F991F08
:1001C0005A95A9F780959095BC01CD010895F894B2
:0201D000FFCF5F
:00000001FF
