:100000000C943A000C9457000C9457000C94570031
:100010000C9457000C9457000C9457000C94570004
:100020000C9457000C9457000C9457000C945700F4
:100030000C9457000C9457000C9457000C945700E4
:100040000C9457000C9457000C9457000C945700D4
:100050000C9457000C9457000C9457000C945700C4
:100060000C9457000C9457000C9457000C945700B4
:100070000C94570011241FBECFEFD4E0DEBFCDBFDC
:1000800012E0A0E0B1E0EEEFFEE102C005900D92BB
:10009000A63CB107D9F723E0A6ECB2E001C01D925F
:1000A000A038B207E1F70E948C0D0C947D0F0C94E0
:1000B0000000FC01962F842F65E00E94FC0D890F43
:1000C000E80FF11D20830895EF92FF920F931F9385
:1000D000CF93DF938091EA0281114CC08CE291E0D2
:1000E0000E94460D84EF91E00E94C50C81E090E0F3
:1000F0000E94BB0C81E090E00E94C00C8AE00E944C
:10010000B50CC2EDD2E08AECE82E82E0F82E06ECC7
:1001100012E0CE010E943003D7018D939D937D01A3
:10012000F80111928F012696F2E0CA3EDF0789F7A7
:10013000E0E1F3E083E28E0F11928E13FDCF6EE0CB
:1001400071E08091CC029091CD020E94D50264E1D1
:1001500071E08091D0029091D1020E94D5026AE1B3
:1001600071E08091CE029091CF020E94D50281E091
:100170008093EA0280910C0190910D01039731F573
:10018000CCECD2E007EC12E0899199910E94E80250
:10019000D8018D938D01B2E0C23DDB07A9F7D0E015
:1001A00000E113E07801C0E0D701ED917D01F0E0BE
:1001B000EA53FD4F6081CE010E94F40ACF5FC53043
:1001C00099F70B5F1F4FDF5FD73061F7DF91CF915A
:1001D0001F910F91FF90EF900C94CA0C80910C032B
:1001E00090910D030C9405096115710521F06130A2
:1001F000710521F0089569E972E002C06CE972E0CE
:1002000080910C0390910D030C94DB080F931F93C6
:10021000CF93DF93CDB7DEB7AC970FB6F894DEBFC0
:100220000FBECDBF8091ED02811129C00E946B07E6
:1002300061E080E00E94630742E050E063E373E026
:1002400080E090E00E94B906809133038F3F21F453
:10025000109233031092340300E113E029E530E0FB
:1002600047E065E084E690E00E94E60360E070E02D
:1002700084EF90E00E94100481E08093ED02809171
:100280000C0190910D018230910509F461C080F458
:10029000019709F0C0C089EA92E00E94A60C6EE9BD
:1002A00071E080910C0390910D030E94DB084DC01A
:1002B0008330910521F0049709F43FC0ACC00E943F
:1002C00017048111A8C06EE972E0CE0101960E9468
:1002D000A10ECE0101968C010196F8012081211119
:1002E000FACF0E94B30640E0B8010E94560DF80113
:1002F0000F5F1F4F80818111FACF8FE281938F01B1
:100300000E94B60640E0B8010E94560D0E94A50B5F
:10031000CE0101960E94A60C65E571E080910C0368
:1003200090910D030E94DB081092EC0261E080E0E6
:100330000E94630784E090E06AC08091EC028F5FC6
:100340008093EC02883C08F466C085E090E05FC0D2
:100350000E94A50B809134038F5F809334038091BA
:1003600033038330E9F028F4813061F0823091F07A
:1003700004C08430E1F0853011F110E01E7F1D7F54
:1003800004E006C010E01E7FFFEFF0FB11F903E070
:1003900083E01DC010E08FEF80FB10F91D7FF7CFC9
:1003A00010E0EFEFE0FB10F9E0FB11F9F0CF10E007
:1003B000FFEFF0FB10F9F0FB11F903E007C010E0CC
:1003C0008FEF80FB10F980FB11F902E084E00E94BE
:1003D000D703802F0E94D403812F0E94E3030E9441
:1003E000410642E050E063E373E080E090E00E9469
:1003F000CF0662EC72E080910C0390910D030E9495
:10040000DB0860E080E00E94630783E090E0909367
:100410000D0180930C01AC960FB6F894DEBF0FBEB1
:10042000CDBFDF91CF911F910F9108951F93CF936F
:10043000DF931F92CDB7DEB7162F972FA3ECB2E054
:10044000E62FF72F2D91222311F02193FBCF40E0CF
:10045000BF0199830E94560D0E94A50B812F99819F
:100460000F90DF91CF911F910C94A60C80910E03F9
:1004700090910F030E944B0A882319F05C9A5E98B2
:1004800008955C985E9A0895CF93DF93CDB7DEB759
:10049000AC970FB6F894DEBF0FBECDBF8091EB02D4
:1004A000811105C00E94B40881E08093EB020E9494
:1004B000370881E00E9405088823D1F080910C0163
:1004C00090910D018330910589F0069789F4809110
:1004D0003303843018F48F5F80933303BE016F5F62
:1004E0007F4F809133030E94160202C00E940806CB
:1004F00083E00E9405088823D1F080910C0190913F
:100500000D018330910589F0069789F480913303BA
:10051000823018F0815080933303BE016F5F7F4FAC
:10052000809133030E94160202C00E940B0683E0F2
:100530000E940508882399F080910C0190910D018B
:10054000059769F486E090E090930D0180930C018B
:10055000BE016F5F7F4F809133030E94160284E0DB
:100560000E9405088823C1F080910C0190910D0133
:100570008530910541F08630910541F0039761F493
:100580000E940E0609C082E090E002C085E090E083
:1005900090930D0180930C01AC960FB6F894DEBFDA
:1005A0000FBECDBFDF91CF910895FC0171836083B1
:1005B000128213821482158281E00895FC018081E9
:1005C00091810895FC0112821382648381E0089571
:1005D000FC01A081B181109709F440C082818F5F36
:1005E00082839C91891728F1128285818F5F8830E0
:1005F00010F485831EC0158283818F5F83831296DA
:100600009C9112978917A8F0138284818F5F84834D
:1006100015969C911597911109C014969C91149769
:10062000891738F01182108281E00895891708F047
:100630001482928111968C911197981760F493818E
:1006400013968C911397981730F481E024811496B7
:100650009C91291708F080E08170089580E008954A
:10066000FC01118210821282138214821582089575
:10067000CF93DF939B01A5E3B3E09E96ED91FC91B0
:100680009F97EC0149816881D0968D919C91D1977B
:10069000DF91CF910994CF93DF93EC012091410337
:1006A00030E040E0A42F042E000CBB0BA217B307D0
:1006B000C4F4CD0163E070E00E94050EFC01EB5C28
:1006C000FC4F8281882359F0EC17FD0741F090819F
:1006D0008881981304C091818981981729F04F5F10
:1006E000E1CF80E090E001C0CF01DF91CF9108958C
:1006F000CF93C82F60E070E087E593E00E94380355
:10070000909157038C2F890F9091590389172CF4DE
:1007100087FF04C08FEF890F01C080E080935703EB
:1007200061E070E087E593E0CF910C943803E091AD
:100730006703F0916803309731F0BC018091690341
:1007400090916A0309940895DB01FC011282E5E3AC
:10075000F3E091A5915091A796A19F5F96A3129661
:100760001C92129760E070E0CD010E94380380E097
:1007700090E00C949703809362030895E5E3F3E01F
:10078000682F70E082A593A50E94220E7687658768
:100790000895E5E3F3E0682F70E082A593A50E9439
:1007A000220E778F668F08958093610308958530B8
:1007B00008F084E0809341030895853008F084E0D8
:1007C00080935203089580936B0308950F931F93B2
:1007D000CF93DF93C5E3D3E06CA34DA33FA72EA730
:1007E00019AB08AB1FAA9BA78AA71BAA1AAAEBE6FC
:1007F000F3E080818E7F8D7F808383E08C8782E031
:100800008D8F80E10E94C90382E00E94BE0384E0D4
:100810008CA785E08DA7DF91CF911F910F9108954F
:10082000E5E3F3E093AB82AB75AB64AB08958F92D5
:100830009F92AF92BF92CF92DF92EF92FF920F936F
:100840001F93CF93DF9380915503909156030196A8
:100850009093560380935503209153033091540392
:100860008217930730F4E0906C03EE2009F4C2C1C4
:100870004AC0109256031092550310E0E12E012E4B
:10088000000CFF082091520330E0E216F3065CF7FB
:10089000C70163E070E00E94050EFC01EB5CFC4FB9
:1008A0002389222371F1EC01CA5BDC4F918980918D
:1008B0005703981305C0928980915803981729F01F
:1008C00060E070E0CE010E943803C70163E070E091
:1008D0000E94050EFC01EB5CFC4F92899150928BBB
:1008E00097FD0EC063E070E0CE010E943803CE0198
:1008F0000E944B03009729F0BE010E94A403F7CF8A
:100900001A821F5FBBCF80914403909145030196EB
:100910009093450380934403209142033091430315
:100920008217930708F466C110924503109244039E
:10093000C0E0EC2F0C2E000CFF0B2091410330E0A7
:10094000E217F307A4F4CF0163E070E00E94050E04
:100950008B5C9C4FDC0112968C911297882329F0B6
:1009600060E070E0CD010E943803CF5FE2CFF12C50
:10097000CF2D0F2C000CDD0B8091410390E0C817A8
:10098000D9070CF0D6C0CE0163E070E00E94050EDE
:100990008C010B5C1C4FF8018281882309F4C7C0CD
:1009A00081818F5F81830E94910E8170382F330F78
:1009B0003150E0916B03E1FF13C040915703042EC7
:1009C000000C550BD8012C91832F032E000C990B92
:1009D000820F911D27FD9A954817590709F4319503
:1009E000CE0163E070E00E94050EDC01AB5CBC4F01
:1009F0002C91230F2C9327FD04C0809159032817B5
:100A0000ECF0CE0163E070E00E94050EE0FF10C044
:100A1000FC01EB5CFC4F022E000C330B37FF03C0D4
:100A200031952195310990915903921B908306C00D
:100A30008B5C9C4F330F231BFC012083CE0163E0B2
:100A400070E00E94050E8C010B5C1C4FD8011196C2
:100A50009C9180915A0398172CF462E070E0C801D1
:100A60000E943803CE0163E070E00E94050E8B5CAB
:100A70009C4FFC012181422F022E000C550B8091CE
:100A80005A03082E000C990B019748175907E4F5F3
:100A9000E09152038E2E912C40E0A42F042E000CE6
:100AA000BB0BA815B9050CF042C0CD0163E070E0A6
:100AB0000E94050EFC01EB5CFC4F5F0123892223A1
:100AC00009F19C012A5B3C4F20173107D9F0CE0178
:100AD00063E070E00E94050E8B5C9C4F6C01918975
:100AE000F601808198130EC0D50152969C918181A8
:100AF000981308C021153105D1F0B901C8010E9431
:100B0000A403C6CF4F5FC9CF80915803281363C099
:100B100080915C038F5F80935C03909162038917DF
:100B200010F010926C0381E090E00E949703F39420
:100B30001FCF80915E03882319F0C091610301C02B
:100B4000C2E00E94910E6C2F70E00E94360E892B3D
:100B500009F050C02091410330E040E0042F042E02
:100B6000000C110B021713070CF044C0C80163E01E
:100B700070E00E94050EEC01CB5CDC4F8A8188237B
:100B800011F04F5FEBCF1982FF24F3940E94910E76
:100B90009C01C80163E070E00E94050EFC01EB5C63
:100BA000FC4F60915903062E000C770BC9010E947F
:100BB000360E8083F282CE010E944B03892B31F7DF
:100BC00080915E038F5F80935E0362E070E0CE01F0
:100BD0000E9438030FC0D80112961C9280915E03C8
:100BE000815080935E0361E070E087E593E00E94AE
:100BF00038039DCF8E2DDF91CF911F910F91FF90E4
:100C0000EF90DF90CF90BF90AF909F908F9008951E
:100C100081E00C9478038FEF0C94780320915203B9
:100C200030E040E0E42F042E000CFF0BE217F30746
:100C30003CF5CF0163E070E00E94050EDC01AB5C87
:100C4000BC4F53968C915397882311F04F5FEACF96
:100C5000809157039091580352969C938E9351978D
:100C6000CF0163E070E00E94050E8B5C9C4F21E099
:100C7000FC01238B80915D038F5F80935D0308955A
:100C800008950F931F93CF93DF9300D0CDB7DEB7B6
:100C9000109256031092550310924503109244038C
:100CA0002091520330E040E0842F042E000C990B79
:100CB0008217930754F463E070E00E94050E8B5C8A
:100CC0009C4FFC01138A4F5FEFCF2091410330E02E
:100CD00040E0842F042E000C990B8217930754F4E4
:100CE00063E070E00E94050E8B5C9C4FFC01128259
:100CF0004F5FEFCF10E08091590318178CF400E09C
:100D000080915A03081754F419830A8360E070E055
:100D1000CE0101960E9438030F5FF2CF1F5FEBCF29
:100D200087FD8F5F85958E7F8093570380915A034F
:100D300081508093580361E070E087E593E00E9462
:100D4000380310925E0310925B0310925C031092C2
:100D50005D0381E080936C030F900F90DF91CF9142
:100D60001F910F91089580915B03089580915D0319
:100D700008959B01240F351FFB01861B970BBC01B7
:100D80006E0F7F1FE217F30741F0F999FECF72BD96
:100D900061BDF89A60B56193F2CFCA0108959B01D5
:100DA000240F351FFB01861B970BBC016E0F7F1FA5
:100DB000E217F30749F0A191F999FECF72BD61BD29
:100DC000A0BDFA9AF99AF1CFCA010895E1E6F0E0E0
:100DD00080E880831082A89584B7877F84BFE0E68F
:100DE000F0E08081886180831082089510928000F5
:100DF00084E0809381001092850010928400089511
:100E000080918400909185000895AC0180918400C8
:100E1000909185009C01241B350B283E3340B0F790
:100E200008952091840030918500820F931F0C94C7
:100E30000507853098F4673088F421E030E001C080
:100E4000220F6A95EAF7E82FF0E0E259FC4F922F63
:100E50009095808189234111822B8083089585306C
:100E600080F4673070F4E82FF0E0E259FC4F81E045
:100E700090E001C0880F6A95EAF79081982381E09D
:100E800009F480E0089560916D03E62FF0E0E259E7
:100E9000FC4F80810E949C0780916D038F5F85309D
:100EA00018F480936D03089510926D030895EEE693
:100EB000F3E01082118212821382148208950E943C
:100EC0007A070C945707811105C0662311F0429AE6
:100ED0000895429808953A9A429A08959C01FC0117
:100EE000FF2784A1832B84A395A1892F832B85A31E
:100EF00081E00895CF93DF93CAE7D2E08991999179
:100F00000E946E0782E0C838D807C1F783E090E4FA
:100F10000E946E0780E090E80E946E0783E090E1F7
:100F20000E946E0783E090E80E946E0783E090E2E3
:100F3000DF91CF910C946E07E0917303F0E0EE0F18
:100F4000FF1FE059FD4F20813181F901FF2795A155
:100F5000932B95A3EAE7F2E097E020813181D90154
:100F6000BB2795962C91959780FF03C0309523233E
:100F700001C0232B95962C93869591503296911112
:100F8000ECCFE62FF0E0EE0FFF1FE059FD4F808120
:100F90009181FC01FF2785A19095892385A360930A
:100FA000730308956230710511F168F461307105C1
:100FB00051F5FC01FF2724A1892F8095922F9823BA
:100FC00094A395A112C06330710541F0643071059E
:100FD000D1F4FC01FF2784A1892B0FC0FC01FF275E
:100FE00084A1892B84A385A19095892309C0FC0144
:100FF000FF2724A1892F8095822384A385A1892B93
:1010000085A381E0089580E00895E82FF0E0EE0FD9
:10101000FF1FEC58FC4F8081882321F0918181E0F3
:10102000892702C080E090E081700895E82FF0E009
:10103000EE0FFF1FEC58FC4F8081811102C08181AF
:1010400002C080E090E081700895E82FF0E0EE0F9C
:10105000FF1FEC58FC4F80810895E82FF0E0EE0F61
:10106000FF1FEC58FC4F908181E0892708956F9213
:101070007F928F929F92AF92BF92CF92DF92EF9228
:10108000FF920F931F93CF93DF9300D0CDB7DEB7BE
:1010900024E7622E23E0722E38E8C32E32E0D32EEE
:1010A000812C46E0942EF30180818183F601019129
:1010B00011916F015801BB24F50184A1E12EFF2499
:1010C00025A130E02E213F2141E0232B09F440E00F
:1010D00090E08E219F21892B29F0411108C023E047
:1010E00030E00AC0411106C021E030E005C024E034
:1010F00030E002C022E030E064E070E0C801298303
:101100003A830E94D20762E070E0C8010E94D207D1
:10111000892D8A95F1F7F50183A190E0E822F92263
:1011200081E029813A81EF2809F080E0F301808392
:10113000B901C8010E94D2078394F2E06F0E711CBE
:1011400085E08812B0CF0F900F90DF91CF911F9163
:101150000F91FF90EF90DF90CF90BF90AF909F9056
:101160008F907F906F9008950895FC0185899689EE
:1011700060EF70E00E94050E9C018685648570E03A
:1011800090E00E94050EBC01660F771F660F771F67
:10119000C9010E94220E63830895CF93DF93EC016F
:1011A000E989FA8940E06D858B899C8909951D86BE
:1011B000DF91CF910895CF93DF93EC0178876F8310
:1011C0007E836D831A8619861B8684E0888B8C87C4
:1011D000CE010E94B508CE010E94CD081982188266
:1011E00081E08A83DF91CF910895FC0166870C949A
:1011F000B508FC016787089521E0FC01858196818F
:10120000892B09F420E0822F0895EF92FF920F932B
:101210001F93CF93DF93EC010D811E810115110502
:1012200009F4EBC088819981009779F0019799833F
:101230008883892B09F0E1C0CE01DF91CF911F9106
:101240000F91FF90EF900C94CD088A81882309F4C8
:10125000D4C081508A838111D0C0D801EC91E111B2
:1012600004C0CE010E94CD08C6C071E0D80111961D
:101270008C911197833219F070E0119602C0D80159
:1012800012964C914B3211F04D3211F4119601C06F
:1012900040E09D0150E080E089012F5F3F4FD80181
:1012A0009C9160ED690F6A3038F46AE00E94FC0D91
:1012B0008053890F51E0F0CFEE33F1F094F4EA322D
:1012C00009F447C02CF4E03209F095C0F12C66C057
:1012D000EA3331F1EC3309F08EC01A8709871B8697
:1012E000BCCFE83434F4E1340CF040C0E034B1F168
:1012F00082C0EB35C1F07FC02B852F5F2B8781111A
:1013000001C082E0022E000C330B90E02817390751
:101310000CF0A3CF09851A850115110509F09DCFA1
:101320000F8118859ACF2B85022E000C330B90E08D
:1013300001972817390709F490CFF8018F0181919F
:10134000882309F48ACF8B3509F487CF8E33B1F720
:1013500084CF882309F481CF8C8704C0882309F4C3
:101360007CCF8E87CE010E94B50877CF0E2E000C61
:10137000FF0BEF5AFD4F908171119F5F5111888BC8
:101380004B3211F4945F03C04D3209F49C508889AC
:101390008F5F6CE00E94FC0DF92EF80EC80131E061
:1013A000301B8C01632F680FFC01208101962F32C6
:1013B000C1F3E62EEE0CEE0C2E3229F42E2D2695DE
:1013C000E20E8C0104C02C3211F48C01E694E98900
:1013D000FA894F856F2D8B899C890995FD862C8113
:1013E0002A838B816E2D70E090E00E94050E821B97
:1013F0009109998388831E830D83DF91CF911F917B
:101400000F91FF90EF900895FC01CB01768B658BD7
:10141000528B418B348B238B24E6278715861182D0
:101420001082128262E370E00E94050E68EE73E0A3
:101430000E94220E648384E0848788EC8687CF0133
:101440000895FC01618342830895FC01662311F035
:10145000411103C01182128208956832D8F028ED3C
:10146000260F822F6CE00E94160E382F64EF0E9428
:10147000FC0D820FA581B681A80FB11D8C91315052
:1014800010F08695FCCF8183642F70E090E00E947D
:10149000050E92830895FC0180818F5F8083918186
:1014A000891708F0108281E020819281291708F0C5
:1014B00080E00895FC017483638356834583118221
:1014C00012820895009789F0FC012381621B67FD59
:1014D00009C0062E000C770B248130E081E06217F2
:1014E00073070CF080E08170089580E00895CF9339
:1014F000DF93FC01A62F822F309771F1618146178F
:1015000058F59281291740F59381A91BA7FD24C0A6
:101510000A2E000CBB0BC481D0E0AC17BD07E4F46D
:101520000E94FC0D480F658170E0CD010E94050E00
:101530000696242F269526952695E80FF91FE20F8B
:10154000F11D9081892F90E0477002C09595879595
:101550004A95E2F7817001C080E0DF91CF91089554
:10156000182F092FF62E0E94F6060E940007C12FA1
:10157000D02F8E819F810E940507E881F9818A81A1
:101580009B8109958E819F812C813D81280F391F78
:101590003F832E830E940007E12FF02FAFEFBFEFB4
:1015A00040E04F1531F326813781BC01621B730B7C
:1015B0009B012F3F7FE7370710F4EF01DACF31951A
:1015C000219531092A173B0710F4D901EF014F5F2C
:1015D0003896E7CF41E0611101C040E0692F0C94DB
:1015E0001907692F0C942F0741E0611101C040E0F9
:1015F000692F0C9419074F925F926F927F928F928E
:101600009F92AF92BF92CF92DF92EF92FF920F9391
:101610001F93CF93DF931F92CDB7DEB7862E942E04
:101620005C01E62EF72E262F660F330B281B31099F
:1016300087FD3395072F072E000C110B091B11098D
:1016400097FD139537FF03C077247A9402C077245F
:10165000739417FF03C066246A9402C066246394DF
:10166000290137FF03C051944194510817FF03C06B
:1016700011950195110940165106A4F06201D59407
:10168000C794F92EA81421F1692D8A2D9F2D0E944F
:10169000F40AC01AD10AD7FE03C0C40CD51CF60C3C
:1016A000A70CF0CF6801D594C794E82EB71681F047
:1016B000692D8E2D9B2D79830E94F40AC418D508BC
:1016C0007981D7FE03C0C00ED11EE70CB60CEECF59
:1016D000692DC7010F90DF91CF911F910F91FF905E
:1016E000EF90DF90CF90BF90AF909F908F907F90C2
:1016F0006F905F904F900C94F40AFF920F931F939A
:10170000CF93DF93D82FF92E162FC72F042F792FC1
:101710000E94FB0A402F6D2F7C2F8D2F9F2D0E9442
:10172000FB0A402F612F7C2F812F9F2D0E94FB0AE7
:10173000402F612F7C2F8D2F9C2F0E94FB0ADF9161
:10174000CF911F910F91FF9008950E945707E0E2FB
:10175000F1E0118A14860895DF92EF92FF920F93C1
:101760001F93CF93DF93D82E7B01162F0F2D8091DF
:10177000220190912301C0E00197A1F50F2D0C1BD0
:10178000E0912801F09129018181C817C0F4D0E0CF
:101790008091280190912901FC012281D21768F4DF
:1017A0002D2F4C2F6D2D0E94770A682F8D2F8E0DB7
:1017B000902F0E94F40ADF5FEBCFCF5FDFCFC0E056
:1017C000E0912801F09129018281C81740F460E07E
:1017D0008C2F8E0D902F0E94F40ACF5FF1CF015015
:1017E00031C0CF5F1C2F1E0DE0912801F09129011F
:1017F0008181C817B0F4D0E080912801909129012F
:10180000FC012281D21768F72D2F4C2F6D2D0E94DD
:10181000770A682F812F9D2F9F0D0E94F40ADF5FAA
:10182000EBCFC0E0E0912801F09129018281C81737
:1018300040F460E0812F9C2F9F0D0E94F40ACF5F3F
:10184000F1CF1F5F812F902FDF91CF911F910F91CB
:10185000FF90EF90DF9008951F93CF93DF93182FA1
:10186000EC018C2F811B9991992351F0892F0E94B3
:10187000AC0BBC018C2F811B653014F477FFF1CFCA
:10188000DF91CF911F9108950F931F93CF93DF9313
:10189000EC019B0110922C0140932D01109230011C
:1018A00000912801109129010115110509F449C081
:1018B000F8018181609126017091270190E00E94DA
:1018C000050EBC0180912A0190912B010E94220EED
:1018D000CB016AE070E00E94050E90932F01809387
:1018E0002E01309325012093240140E250E0BE01F7
:1018F00081E391E00E94A80E809120019091210146
:101900000197F9F4FE0101900020E9F7CF0101975A
:10191000F8019181692F70E06F5F7F4F8C1B0E94EF
:10192000FC0D81502091220130912301213031059D
:1019300011F095E001C097E0981718F48EEF8093AE
:101940003001DF91CF911F910F91089520912201D5
:10195000309123012130310511F070E001C076E0B3
:101960004FEF60E00E94440C089590E090932701AF
:10197000809326010895909321018093200108957A
:1019800090932301809322010895909329018093DD
:101990002801089580917E0390917F030196909392
:1019A0007F0380937E0320912E0130912F018217B7
:1019B000930708F469C010927F0310927E03E091B0
:1019C0002C01F0E0E05EFE4F818981110AC0809118
:1019D0002D01823008F458C0815080932D0110925F
:1019E0002C0180912C0190E0FC01E05EFE4F2189EA
:1019F000222309F449C040912001509121012091F6
:101A000030014115510521F04130510599F024C0B4
:101A1000211122C060912401709125018F5C9E4F9D
:101A20000E942C0C90E0019790912C01890F8093DB
:101A30002C0112C060912401709125014091220176
:101A4000509123014130510511F4720F01C0621B06
:101A50008F5C9E4F0E942C0C809130018F5F809391
:101A60003001082E000C990BE0912801F09129011A
:101A7000218130E0281739073CF410923001809121
:101A80002C018F5F80932C010C944307CF93DF933D
:101A9000C0E2D1E09B878A870E945F0784E190E0E3
:101AA0009F838E83DF91CF910C94A50BCF93DF930F
:101AB00000D000D0CDB7DEB7582FFB0184E6898374
:101AC0008AE08A8381E08B831C8230E0A1E0B0E071
:101AD000AC0FBD1FA30FB11D2C912223A9F0852FA0
:101AE000622F0E94160E411104C0811102C02130E4
:101AF00049F490E3980F9083622F0E94FC0D581BCD
:101B0000319641E03F5FE2CF10820F900F900F902F
:101B10000F90DF91CF9108950F931F93CF93DF9391
:101B2000CDB7DEB7A8970FB6F894DEBF0FBECDBF16
:101B30008E010F5F1F4F88E2F80111928A95E9F735
:101B400086E392E09A83898386E090E09E838D838A
:101B50008EEE90E09A87898788E391E09E878D8753
:101B600024E630E03A8B298B28E630E03E8B2D8B43
:101B700024E432E03A8F298F2AE136E03E8F2D8F20
:101B800026E031E03AA329A39EA38DA30E94E60696
:101B900040E051E068E873E18EEE92E00E945A0A5C
:101BA00090930F0380930E03549A5C98569A5E9814
:101BB00020910E0330910F0345E25AE064E670E095
:101BC00085EF92E00E94040A90930D0380930C032A
:101BD00068EC0E94F50865E0C8010E94B00A80E048
:101BE00090E0A8960FB6F894DEBF0FBECDBFDF9190
:101BF000CF911F910F910895002480FD060E660F6E
:101C000011F08695D1F7802D08950024552704C042
:101C1000080E591F880F991F009729F07695679530
:101C2000B8F37105B9F7802D952F0895991B79E0C8
:101C300004C0991F961708F0961B881F7A95C9F75C
:101C400080950895AA1BBB1B51E107C0AA1FBB1FAB
:101C5000A617B70710F0A61BB70B881F991F5A9538
:101C6000A9F780959095BC01CD01089597FB072EAB
:101C700016F4009407D077FD09D00E94220E07FCCD
:101C800005D03EF4909581959F4F0895709561958C
:101C90007F4F0895A0E0B0E0E0E5FEE00C94FC0E7C
:101CA000EC01688179818A819B81611571058105CB
:101CB000910521F464E279ED8BE597E02DE133EFB6
:101CC00041E050E00E94B70E49015A0127EA31E491
:101CD00040E050E00E94D60E69017A01C501B401CE
:101CE0002CEE34EF4FEF5FEF0E94D60E022F132F32
:101CF0009A01D701C601800F911FA21FB31FB7FF22
:101D000003C00197A109B04888839983AA83BB8344
:101D10009F77CDB7DEB7ECE00C94180F0E944A0E07
:101D2000089581E591E00E944A0E0895A0E0B0E098
:101D30008093510190935201A0935301B0935401A9
:101D40000895FB01DC0101900D920020E1F7089558
:101D5000FB01DC014150504048F001900D92002001
:101D6000C9F701C01D9241505040E0F70895052E7B
:101D700097FB1EF400940E94CE0E57FD07D00E94E0
:101D80002D0F07FC03D04EF40C94CE0E50954095C9
:101D9000309521953F4F4F4F5F4F08959095809517
:101DA000709561957F4F8F4F9F4F089568940013F2
:101DB000E894A0E0B0E0EFEDFEE00C94FE0EEFEF53
:101DC000E7F959016A015E23550FEE08FE2C8701E1
:101DD0009B01AC019E23990F660B762FCB010E94CD
:101DE0004F0FCDB7DEB7EAE00C941A0F2F923F9257
:101DF0004F925F926F927F928F929F92AF92BF921B
:101E0000CF92DF92EF92FF920F931F93CF93DF93C6
:101E1000CDB7DEB7CA1BDB0B0FB6F894DEBF0FBE23
:101E2000CDBF09942A88398848885F846E847D8470
:101E30008C849B84AA84B984C884DF80EE80FD8072
:101E40000C811B81AA81B981CE0FD11D0FB6F894E8
:101E5000DEBF0FBECDBFED010895A1E21A2EAA1B71
:101E6000BB1BFD010DC0AA1FBB1FEE1FFF1FA2174A
:101E7000B307E407F50720F0A21BB30BE40BF50B47
:101E8000661F771F881F991F1A9469F760957095D0
:101E9000809590959B01AC01BD01CF010895DF9322
:101EA000CF939F92A0E49A2E0024D001E001F0018C
:101EB00016950795F794E794D794C794B794A79489
:101EC00048F41068A20FB31FC41FD51FE61FF71FE9
:101ED000081E191E220F331F441F551F661F771F30
:101EE000881F991F9A9421F79D01AE01BF01C0017F
:0E1EF00011249F90CF91DF910895F894FFCFB9
:101EFE003D393633302D2B282624222001000505AE
:101F0E000505010105050505010103030301010195
:101F1E00000000000000140000000000000000009F
:101F2E0000000000000000000000000000000000A3
:101F3E000000000000000000000000000000000093
:101F4E0000010000002A383C472F2F2F3E333C441F
:101F5E00232F2F4123472F2F2F3E32202F2F2F4459
:101F6E002B2F2F2F442B2F2F2F442B2F2F2F44234C
:101F7E002B2F2F412346232F2F2F44232F2F412347
:101F8E00472F2F2F202F2F2F202020203E002A38A2
:101F9E004533454242453245423342444441414431
:101FAE00344441334141324145334541414242433C
:101FBE00344342334241414747454542424532450B
:101FCE00423342444441414434444133414132411D
:101FDE0045334541414242433443423342414142FB
:101FEE00423E2000010305203B0200009220EB73CD
:101FFE007D5FDE3DA552EA7A14004A222229BA2ECE
:10200E00D0050014C0010020A4126A2B9A74A3728A
:10201E00A338ED498F38CE2AA712AA2AAE4910044A
:10202E0010145444380E11152A250000EA5BEB3AC1
:10203E004F726B3BCF73CF134F7AED5B9774247B4C
:10204E005D564972FD5B6F5B6F7BEF136F7FEF57D2
:10205E00CE3897246D7B6D2BED5FAD5AAD24A772F4
:10206E000340008003100380032000400020001076
:10207E0000080004000200010380034003200080DA
:10208E000310090B0002040507432B0043004741D0
:10209E004D45204F5645522000535041434559203F
:1020AE0052454144592056312E36204259204D502A
:0620BE004820004C000068
:00000001FF
